:100000000C94150418951895189518951895189529
:100010001895189518951895189518951895189578
:100020001895189518951895189518951895189568
:100030000C945B00189518951895189518951895B7
:100040000C949D0018951895189518951895189565
:100050001895189518951895189518951895189538
:100060001895189518951895189518951895189528
:100070001895189518951895189518951895189518
:100080000C94FD00189518951895189518951895C5
:10009000189518950093CE001091C800212F25FFC8
:1000A000FBCF0895F8010081002321F00081F2DFE9
:1000B0003196F9CF0895FA93EA934A933A932A93A3
:1000C0001A930A933FB74BB7009181000A7F0093C0
:1000D000810000E00093850000E00093840003E8C5
:1000E00011E000938C0110938D0103E811E000935F
:1000F0008A0110938B0100E00093760100E00093E9
:10010000770100E00093780100E000938E0100E0A9
:1001100000938F0105E00093810100E000938201CC
:1001200000E411E0BFDF4BBF3FBF09911991299156
:1001300039914991E991F9911895FA93EA934A9383
:100140003A932A931A930A933FB74BB704B50A7FA1
:1001500004BD00E006BD03E811E000938C0110939C
:100160008D0103E811E000938A0110938B0100E0F8
:100170000093760100E00093770100E0009378019E
:1001800000E000938E0100E000938F0105E00093F2
:10019000810100E00093820100E411E083DF4BBFA6
:1001A0003FBF09911991299139914991E991F991AB
:1001B00018950E942904AAE8B1E0ED91FC911197ED
:1001C000008343E851E0E3E8F1E087819085841BF8
:1001D000950B069739F423E831E0E3E8F1E0278353
:1001E000308708C0E3E8F1E0278130852F5F3F4F7B
:1001F00027833087E4E00C942E04FA93EA930A9262
:100200007A936A935A934A933A932A931A930A9346
:100210006FB77BB71091CE0000917601002369F48F
:100220001A3339F401E00093760104B5056004BD8A
:1002300018C002E00093760114C0009176010130ED
:1002400081F41A3361F400E00093760101E0009339
:10025000780104B50A7F04BD00E006BD02C0012F8D
:10026000A8DF7BBF6FBF09911991299139914991FD
:100270005991699179910990E991F9911895F999B4
:10028000FECF12BD01BD20BDFA9AF99A08950E94D1
:100290002904ACE8B1E0ED91FC9111971081012F98
:1002A00043E851E0E3E8F1E081859285841B950BFA
:1002B000069739F423E831E0E3E8F1E0218732875B
:1002C00008C0E3E8F1E0218532852F5F3F4F2187A9
:1002D0003287E4E00C942E040EBD1DB5212F27FFBC
:1002E000FCCF0895392F682FA8012C9880E090E06A
:1002F000843000E090073CF4FA01E80FF91F008118
:10030000EBDF0196F5CF2C9A862F932F0895BD0130
:10031000D8010FEFA9019A0121503040452B91F0EF
:100320001C9101271196E0E0F0E0E83010E0F107C1
:1003300088F707FB26F4000F11E3012701C0000F27
:100340003196F3CFDB0108959801F999FECF32BDC4
:1003500021BDF89A00B508952D9A0895249A2C9AF3
:10036000089507E004B901E50CBD089508ED009378
:10037000C90003E30093CC0003E811E0E3E8F1E0F7
:100380000187128703E811E0E3E8F1E007831087B3
:10039000089508E0009381000DE30093890008E0D0
:1003A0000093880002E000936F00089508E004BD08
:1003B0000EE507BD02E000936E0008950E94290437
:1003C000F5DFE7DFD3DFCDDFC9DFC6DFA0E0B0E0D8
:1003D000A83100E0B0079CF4EEE8F1E00081118163
:1003E000B3DFFD01E257FE4F0283EEE8F1E000814A
:1003F00011810F5F1F4F008311831196E9CFEEE843
:10040000F1E000E0008300E0018328E130E000E952
:1004100011E07DDF202E09E110E096DF102E21147F
:1004200009F0A8C0A0E0B0E0A43000E0B007B4F448
:10043000EEE8F1E000811181F801E257FE4F028100
:10044000FD01EE58FE4F0083EEE8F1E000811181DE
:100450000F5F1F4F008311831196E6CFA0E0B0E03D
:10046000A43000E0B007B4F4EEE8F1E000811181BF
:10047000F801E257FE4F0281FD01E259FE4F008371
:10048000EEE8F1E0008111810F5F1F4F00831183BF
:100490001196E6CFA0E0B0E0A43000E0B007B4F4DD
:1004A000EEE8F1E000811181F801E257FE4F028190
:1004B000FD01E659FE4F0083EEE8F1E00081118175
:1004C0000F5F1F4F008311831196E6CFA0E0B0E0CD
:1004D000A43000E0B007B4F4EEE8F1E0008111814F
:1004E000F801E257FE4F0281FD01EA59FE4F0083F9
:1004F000EEE8F1E0008111810F5F1F4F008311834F
:100500001196E6CFA0E0B0E0A43000E0B007B4F46C
:10051000EEE8F1E000811181F801E257FE4F02811F
:10052000FD01EE59FE4F0083EEE8F1E000811181FC
:100530000F5F1F4F008311831196E6CFA0E0B0E05C
:10054000A43000E0B007B4F4EEE8F1E000811181DE
:10055000F801E257FE4F0281FD01E25AFE4F00838F
:10056000EEE8F1E0008111810F5F1F4F00831183DE
:100570001196E6CFEEE8F1E000E0008300E00183B1
:1005800002E711E0AFDE0EE611E0ACDE0AE611E0B4
:10059000A9DE06E611E0A6DE02E611E0A3DE0EE526
:1005A00011E0A0DE78940FE11EE401501040E9F75D
:1005B00000C00000F89400917601023009F4F4C004
:1005C00000917801013009F0EFC0009181000560D1
:1005D0000093810000917701005051F00A95C1F01D
:1005E0000A9591F10A95F9F10A9509F472C0DCC0F7
:1005F0004EDE802F882311F0813031F480937A0110
:1006000001E000937701D0C002E000937601CCC0F6
:100610003EDE802F90E0E6E7F1E003851485801749
:10062000910771F480937B0102E000937701E6E784
:10063000F1E0038514850150104003871487B4C08E
:1006400002E000937601B0C022DE802F843021F0DA
:1006500002E000937601A8C004E000937C0103E06F
:1006600000937701A1C0A0E0B0E000917C0110E010
:10067000A017B107DCF40BDEFD01EA58FE4F07833B
:10068000FD01EA58FE4F0781EEE8F1E0208131815B
:10069000F901E257FE4F0283EEE8F1E0008111819B
:1006A0000F5F1F4F008311831196DFCFE3E8F1E066
:1006B00001851285E3E8F1E02781308502171307F1
:1006C00021F002E0009376016FC004E0009377010F
:1006D0006BC00DE711E006DE00917B01002309F0FD
:1006E0005AC008E411E0DEDC0FE91FE001501040C1
:1006F000E9F700C000001D9B33C00CE411E0D2DC20
:10070000EEE8F1E000E0008300E00183A0E0B0E06B
:10071000A83100E0B0079CF4FD01E257FE4F2281B2
:10072000EEE8F1E000811181AADDEEE8F1E0008160
:1007300011810F5F1F4F008311831196E9CFEEE8FF
:10074000F1E000E0008300E0018328E130E000E90F
:1007500011E0DDDD302F232F09E110E090DD03C033
:1007600004E511E09FDC00E00093770100E00093D6
:100770007801E6E7F1E005E010E0038714870091D7
:1007800081000A7F0093810000E00093850000E073
:100790000093840009C001E00093790100E0009318
:1007A000770100E00093780100917601023079F53D
:1007B000009181000A7F0093810000E00093850092
:1007C00000E00093840003E811E0E3E8F1E0018732
:1007D000128703E811E0E3E8F1E00783108700E007
:1007E0000093760100E00093770100E00093780128
:1007F000EEE8F1E000E0008300E00183E6E7F1E0ED
:1008000005E010E00387148709E511E04BDC009157
:100810007901013031F408E411E044DC00E0009398
:1008200079017894C0CE0C9474040FE30DBF01E0FD
:100830000EBFC0E2D1E00E943704002311F00E94F5
:1008400049040E94DE010E9427040C9413040C94B6
:100850001304BA93AA939A938A930895BB81AA81A9
:1008600099818881F0E0EC0FFD1FEF01089501E010
:10087000089520E02D9301501040E1F708953BBF0B
:1008800026912D93EF5FFF4F3F4F01501040B9F776
:1008900008954AEE58E060E0FA01362F3BBF079119
:1008A0001691FA01EE5FFF4F3F4F3BBFA791B69104
:1008B000FA01362FEC5FFF4F3F4F3BBF0790179079
:1008C0002690202D2129222921F0F001322DD7DF79
:1008D00001C0CFDF495F5F4F6F4F18E020E0483F16
:1008E00051076207C8F20895FFCF43004001F8089E
:1008F000002500830100000054494D454F55540028
:1009000041434B0053554343455353004641494CE3
:10091000004E41434B0001D48000080080111900B3
:10092000BFC2006004B30081403C005800050000D5
:0B0930000000000000000000000500B7
:00082A01CD
:00000001FF
