:100000000C943A0318951895189518951895189505
:100010001895189518951895189518951895189578
:100020001895189518951895189518951895189568
:100030001895189518951895189518951895189558
:100040001895189518951895189518951895189548
:100050001895189518951895189518951895189538
:100060001895189518951895189518951895189528
:100070001895189518951895189518951895189518
:100080000C946E0018951895189518951895189554
:10009000189518950E944E03A5E7B1E0ED91FC91EB
:1000A000119700834EE651E0EEE6F1E087819085FE
:1000B000841B950B069739F42EE631E0EEE6F1E06D
:1000C0002783308708C0EEE6F1E0278130852F5F77
:1000D0003F4F27833087E4E00C945303FA93EA936D
:1000E0000A927A936A935A934A933A932A931A9369
:1000F0000A936FB77BB71091CE000091790100236E
:1001000051F41A3321F401E00093790113C002E0A5
:10011000009379010FC000917901013059F41A332D
:1001200039F400E00093790101E000937B0102C003
:10013000012FB0DF7BBF6FBF0991199129913991D0
:1001400049915991699179910990E991F99118959D
:100150000093CE001091C800212F25FFFBCF0895FA
:10016000F8010081002321F00081F2DF3196F9CF00
:100170000895F999FECF12BD01BD20BDFA9AF99AF2
:1001800008950E944E03A7E7B1E0ED91FC9111970D
:100190001081012F4EE651E0EEE6F1E08185928577
:1001A000841B950B069739F42EE631E0EEE6F1E07C
:1001B0002187328708C0EEE6F1E0218532852F5F86
:1001C0003F4F21873287E4E00C9453030EBD1DB5E9
:1001D000212F27FFFCCF0895392F682FA8012C98D5
:1001E00080E090E0843000E090073CF4FA01E80FF2
:1001F000F91F0081EBDF0196F5CF2C9A862F932F04
:100200000895BD01D8010FEFA9019A012150304096
:10021000452B91F01C9101271196E0E0F0E0E830C9
:1002200010E0F10788F707FB26F4000F11E3012720
:1002300001C0000F3196F3CFDB0108959801F999C1
:10024000FECF32BD21BDF89A00B508952D9A0895CC
:10025000249A2C9A089507E004B901E50CBD08958D
:1002600008ED0093C90003E30093CC000EE611E013
:10027000EEE6F1E0018712870EE611E0EEE6F1E02E
:100280000783108708950E944E03EADFE4DFE0DF72
:10029000DDDFA0E0B0E0A83100E0B0079CF4E4E8C6
:1002A000F1E000811181CADFFD01EC57FE4F0283AE
:1002B000E4E8F1E0008111810F5F1F4F008311839B
:1002C0001196E9CFE4E8F1E000E0008300E001836B
:1002D00028E130E006E811E094DF202E09E110E08B
:1002E000ADDF102E211409F0A8C0A0E0B0E0A430CA
:1002F00000E0B007B4F4E4E8F1E000811181F80116
:10030000EC57FE4F0281FD01E659FE4F0083E4E801
:10031000F1E0008111810F5F1F4F0083118311965F
:10032000E6CFA0E0B0E0A43000E0B007B4F4E4E829
:10033000F1E000811181F801EC57FE4F0281FD01CF
:10034000EA59FE4F0083E4E8F1E0008111810F5F7C
:100350001F4F008311831196E6CFA0E0B0E0A430D8
:1003600000E0B007B4F4E4E8F1E000811181F801A5
:10037000EC57FE4F0281FD01EE59FE4F0083E4E889
:10038000F1E0008111810F5F1F4F008311831196EF
:10039000E6CFA0E0B0E0A43000E0B007B4F4E4E8B9
:1003A000F1E000811181F801EC57FE4F0281FD015F
:1003B000E25AFE4F0083E4E8F1E0008111810F5F13
:1003C0001F4F008311831196E6CFA0E0B0E0A43068
:1003D00000E0B007B4F4E4E8F1E000811181F80135
:1003E000EC57FE4F0281FD01E65AFE4F0083E4E820
:1003F000F1E0008111810F5F1F4F0083118311967F
:10040000E6CFA0E0B0E0A43000E0B007B4F4E4E848
:10041000F1E000811181F801EC57FE4F0281FD01EE
:10042000EA5AFE4F0083E4E8F1E0008111810F5F9A
:100430001F4F008311831196E6CF0AE611E0CCDE50
:1004400006E611E0C9DE02E611E0C6DE0EE511E0C7
:10045000C3DE0AE511E0C0DE06E511E0BDDE7894FA
:100460000FE11EE401501040E9F700C00000F894CD
:1004700000917901023009F4CDC000917B01013077
:1004800009F0C8C000917A01005051F00A95C1F0FE
:100490000A9521F10A9589F10A9509F461C0BAC05B
:1004A00070DE802F882311F0813031F480937D013C
:1004B00001E000937A01AEC002E000937901AAC086
:1004C00060DE802F863030F480937E0102E000935E
:1004D0007A01A0C002E0009379019CC052DE802F17
:1004E000843021F002E00093790194C004E000938D
:1004F0007F0103E000937A018DC0A0E0B0E000919D
:100500007F0110E0A017B107C4F43BDEFD01E758FE
:10051000FE4F0783FD01E758FE4F2781E4E8F1E035
:100520000081118126DEE4E8F1E0008111810F5F96
:100530001F4F008311831196E2CFEEE6F1E00185B3
:100540001285EEE6F1E0278130850217130721F0CE
:1005500002E0009379015EC004E000937A015AC082
:1005600000E811E039DE00917E01002309F049C066
:1005700000E411E0F5DD0FE31CE901501040E9F75C
:1005800000C000001D9B04C004E411E0E9DD03C0CD
:100590000CE411E0E5DD00E000937A0100E0009357
:1005A0007B01E4E8F1E000E0008300E00183A0E0EB
:1005B000B0E0A83100E0B0079CF4E4E8F1E000818D
:1005C00011813CDEFD01EC57FE4F0283E4E8F1E0CF
:1005D000008111810F5F1F4F008311831196E9CFB6
:1005E000E4E8F1E000E0008300E0018328E130E08E
:1005F00006E811E006DE302F232F09E110E0B9DD17
:1006000009C001E000937C0100E000937A0100E062
:1006100000937B01009179010230F1F40EE611E0C4
:10062000EEE6F1E0018712870EE611E0EEE6F1E07A
:100630000783108700E00093790100E000937A01BE
:1006400000E000937B01E4E8F1E000E0008300E0DB
:10065000018301E511E084DD00917C01013031F47A
:1006600000E411E07DDD00E000937C017894F8CE99
:100670000C9499030FE30DBF01E00EBFC0E2D1E07F
:100680000E945C03002311F00E946E030E9443014C
:100690000E944C030C9438030C943803BA93AA9329
:1006A0009A938A930895BB81AA8199818881F0E009
:1006B000EC0FFD1FEF01089501E0089520E02D9358
:1006C00001501040E1F708953BBF26912D93EF5F55
:1006D000FF4F3F4F01501040B9F7089544E357E0F2
:1006E00060E0FA01362F3BBF07911691FA01EE5FE9
:1006F000FF4F3F4F3BBFA791B691FA01362FEC5FFA
:10070000FF4F3F4F3BBF079017902690202D212988
:10071000222921F0F001322DD7DF01C0CFDF495F60
:100720005F4F6F4F17E020E0423451076207C8F275
:100730000895FFCF2E00400142070030006E0100F7
:10074000000041434B00535543434553530046413A
:10075000494C004E41434B0000DC00000800801172
:1007600019004F4200E004B30080A03C005800058F
:0006740185
:00000001FF
