:1000000022C1189518955BC01895189518951895E4
:10001000189518950AC01895189518951895050003
:10002000620000000200600000030A930FB70FBFD8
:1000300009911895E02FF0E0308120E0E02FF0E00A
:10004000018110E0202B312B89010895AA930B81A7
:1000500001600B8304E0AC2FAD5F97D00E8107FDEC
:1000600002C000E001C001E0A991CA5F0895AA930F
:100070000B810E7F0B830A810C8302E0AC2FAD5FF6
:1000800084D0A991CA5F0895C65000E9088300E9A9
:10009000098308810A831DD047D0EC2FF0E006E0E9
:1000A00010E0F2D0E4DFEC2FF0E006E010E0ECD05E
:1000B000CDDF0023C1F70C2F0D5FBCDFF4CF1A9307
:1000C0000A931FB701E0009365001FBF09911991C2
:1000D0001895E2D0F894BB9AC39A21E433E081E00A
:1000E00090E00BC0E0E6F0E000811181000F111FED
:1000F000E0E6F0E0008311830196E0E6F0E0408165
:1001000051818901AED0003041E0140758F7809347
:100110006200E0E6F0E0408151818901A2D00EBD8D
:100120000EB50DBDE2E0BBC0C09AC29ABA9AB89AA9
:100130000FEF0FB90AE20DB900EF0EB90895C0989C
:10014000C29AB29BFECF0BE00A95F1F7C09A0CE081
:100150000A95F1F700C001E008950EB90BE21CE02A
:100160001A95F1F700C00DB9B29BFECF1BE01A95AE
:10017000F1F70DB9769BF3CF0CE00A95F1F700C0CB
:100180000FB11FEF1FB9B89A08955B2F202F30EFE2
:100190004EEF00E000936600E6E6F0E000810160CB
:1001A0000083B0E00C9100FD05C0E6E6F0E00081C0
:1001B00002600083C29AB29BFECF0CE00A95F1F771
:1001C00000C0C0980BE00A95F1F7C298C09A009160
:1001D00066000370002301F1C298B0E00C910FB9E2
:1001E000A395032FBADFB898042FB7DF00FB76F48E
:1001F000E6E6F0E0008100FF04C006E00093660040
:1002000003C005E00093660000E01AC0E6E6F0E0F7
:1002100000810E7F00830FC0B898032F9EDFB0E0EF
:100220000C93A395213019F40FEF0FB902C000E031
:100230000FB9042F92DF2A95222349F680DF01E0CF
:10024000B52F08955CC006EA0DBF00E00EBFC7E8F9
:10025000D0E02CD0002309F038D016DF01D0F2CF47
:10026000F1CF00241124E0E1001F111FEA9542F0B4
:10027000001C111C04161506B8F3041A150AF4CF55
:10028000A001009510950895E00FF11F02900A92C9
:1002900001501040D9F708959A938A93089599814F
:1002A0008881F0E0EC0FFD1FEF01089501E0089553
:1002B00020E02D9301501040E1F7089524912D93F3
:1002C000319601501040D1F708958EE190E0FC0185
:1002D00005911491FC013296A591B491FC013496DC
:1002E00025913491422F432B19F0F901E7DF01C02A
:1002F000DFDF069610E08A32910748F30895FFCFBA
:020300000100FA
:00024601B7
:00000001FF
