:1000000008C11895189548C0189518951895189511
:10001000189518950AC01895189518951895040004
:10002000A20000000200A000D2020A930FB70FBF87
:100030000991189517D10E8101600E8304E0DE014D
:1000400016968ED0098507FD02C000E001C001E0D0
:10005000EAE00DC107D10E810E7F0E830D810F8363
:1000600002E0DE0116967CD0EAE001C1269700E9A5
:10007000088300E9098308810A8318D040D0FE0173
:1000800006E010E0E7D0E6DFFE0106E010E0E2D097
:10009000D1DF0023C9F7F8CF1A930A931FB701E005
:1000A0000093A4001FBF099119911895DDD0F89411
:1000B000BA9AC29A20EA31E081E090E00BC0E0EA0F
:1000C000F0E000811181000F111FE0EAF0E00083F1
:1000D00011830196E0EAF0E0408151818901A7D0C7
:1000E000013041E0140758F780BFE0EAF0E04081BA
:1000F000518189019CD00A950EBDE2E0BAC0C09A38
:10010000C29ABA9AB89A0FEF0FB90AE20DB900EF86
:100110000EB90895C098C29AB29BFECF0BE00A9523
:10012000F1F7C09A0CE00A95F1F700C001E00895DC
:100130000EB90BE21CE01A95F1F700C00DB9B29BA5
:10014000FECF1BE01A95F1F70DB9769BF3CF0CE0CB
:100150000A95F1F700C00FB11FEF1FB9B89A0895C3
:10016000202F30EF4EEF00E00093A500E5EAF0E02D
:100170000081016000830C9100FD05C0E5EAF0E01C
:10018000008102600083C29AB29BFECF0CE00A9508
:10019000F1F700C0C0980BE00A95F1F7C298C09A39
:1001A0000091A50003700023F9F0C2980C910FB9DB
:1001B0001196032FBDDFB898042FBADF00FB76F449
:1001C000E5EAF0E0008100FF04C006E00093A5002E
:1001D00003C005E00093A50000E00895E5EAF0E023
:1001E00000810E7F00830EC0B898032FA1DF0C930F
:1001F0001196213019F40FEF0FB902C000E00FB9CA
:10020000042F96DF2A95222359F684DF01E0089512
:100210005FC00FE90DBF00E00EBFC0E8D0E030D0F6
:10022000002309F03BD022DF01D0F2CFF1CF002430
:100230001124E0E1001F111FEA9542F0001C111C7F
:1002400004161506B8F3041A150AF4CFA001009598
:1002500010950895E00FF11F02900A92015010408E
:10026000D9F70895BA93AA939A938A930895BB8174
:10027000AA8199818881F0E0EC0FFD1FEF010895BC
:1002800001E0089520E02D9301501040E1F708951A
:1002900025912D9301501040D9F708958EE190E0FB
:1002A000FC0105911491FC013296A591B491FC01D9
:1002B000349625913491422F432B19F0F901E8DF50
:1002C00001C0E0DF069610E08A32910748F30895F6
:0402D000FFCF01005B
:00021201EB
:00000001FF
