:100000006CC1189518955DC0189518951895189598
:100010001895189518951895189518951895050020
:1000200062000000020060009E03AA930B81016041
:100030000B8304E0AC2FAD5FF2D00E8107FD12C040
:1000400001E674D004E672D003E670D00DE36ED002
:100050000C816CD00D816AD00DE068D00AE066D0CA
:1000600000E001C001E0A991CA5F0895AA930B8145
:100070000E7F0B830A810C8302E0AC2FAD5FCFD0E3
:10008000A991CA5F0895C65000E9088300E9098371
:1000900008810A8320D092D0EC2FF0E006E010E037
:1000A00042D1E4DFEC2FF0E006E010E03CD1BDDF10
:1000B0000023C1F7EC2FF0E006E010E034D1D6DFEA
:1000C000F1CF1A930A931FB701E0009365001FBF99
:1000D0000991199118952FD1F894BC9AC49A21E4EA
:1000E00033E081E090E00BC0E0E6F0E000811181B8
:1000F000000F111FE0E6F0E0008311830196E0E6B7
:10010000F0E0408151818901FBD0003041E01407CB
:1001100058F780936200E0E6F0E040815181890168
:10012000EFD00EBD0EB50DBDE2E008C10093640036
:10013000C49800E00FBD09B7006409BF00916200D8
:10014000006800BF7894009165000130E1F700E09D
:10015000009365000DC0C49800916300039500935F
:100160006300009165000130E1F700E00093650055
:1001700000916300083061F02091640040916300B9
:1001800001E010E0BAD02023222329F3C49AE4CF5F
:1001900000E000936500C49A009165000130E1F72A
:1001A000F89400B7007800BF09B70F7B09BF00E0E3
:1001B0000093650000E0009363000895C09AC29A1E
:1001C000BA9AB89A0FEF0FB90AE20DB900EF0EB95B
:1001D0000895C098C29AB29BFECF0BE00A95F1F742
:1001E000C09A0CE00A95F1F700C001E008950EB93D
:1001F0000BE21CE01A95F1F700C00DB9B29BFECFDF
:100200001BE01A95F1F70DB9769BF3CF0CE00A9538
:10021000F1F700C00FB11FEF1FB9B89A08955B2F17
:10022000202F30EF4EEF00E000936600E6E6F0E0AE
:10023000008101600083B0E00C9100FD05C0E6E69E
:10024000F0E0008102600083C29AB29BFECF0CE016
:100250000A95F1F700C0C0980BE00A95F1F7C29833
:10026000C09A009166000370002301F1C298B0E0CB
:100270000C910FB9A395032FBADFB898042FB7DFFD
:1002800000FB76F4E6E6F0E0008100FF04C006E043
:100290000093660003C005E00093660000E01AC00A
:1002A000E6E6F0E000810E7F00830FC0B898032FD0
:1002B0009EDFB0E00C93A395213019F40FEF0FB936
:1002C00002C000E00FB9042F92DF2A95222349F6DD
:1002D00080DF01E0B52F089561C006EA0DBF00E0A0
:1002E0000EBFC7E8D0E031D0002309F03DD0CBDE0F
:1002F00001D0F2CFF1CF000F111F4A95E2F7089518
:1003000000241124E0E1001F111FEA9542F0001CB7
:10031000111C04161506B8F3041A150AF4CFA0012F
:10032000009510950895E00FF11F02900A92015078
:100330001040D9F708959A938A93089599818881F6
:10034000F0E0EC0FFD1FEF01089501E0089520E0BB
:100350002D9301501040E1F7089524912D9331968B
:1003600001501040D1F708958EE190E0FC01059115
:100370001491FC013296A591B491FC01349625911B
:100380003491422F432B19F0F901E7DF01C0DFDF81
:10039000069610E08A32910748F30895FFCF0100D6
:0002DA0123
:00000001FF
