:100000001DC0189518951895189518951895189558
:100010001895189508C01895189518951895030007
:10002000A0000000FFCF1A930A931FB701E00093CE
:10003000A2001FBF09911991189536C00FE90DBF95
:1000400000E00EBFC0E8D0E007D0002309F012D0D6
:10005000E9DF01D0F2CFF1CF01E0089520E02D9348
:1000600001501040E1F7089525912D930150104063
:10007000D9F708958EE190E0FC0105911491FC01FF
:100080003296A591B491FC01349625913491422F7A
:10009000432B19F0F901E8DF01C0E0DF069610E01C
:0A00A0008432910748F30895FFCF62
:00003C01C3
:00000001FF
